{
  "_format": "hh-sol-artifact-1",
  "contractName": "NouncillorsToken",
  "sourceName": "contracts/NouncillorsToken.sol",
  "abi": [
    {
      "inputs": [
        {
          "internalType": "address",
          "name": "forwarder",
          "type": "address"
        }
      ],
      "stateMutability": "nonpayable",
      "type": "constructor"
    },
    {
      "inputs": [],
      "name": "AlreadyClaimed",
      "type": "error"
    },
    {
      "inputs": [],
      "name": "ERC721EnumerableForbiddenBatchMint",
      "type": "error"
    },
    {
      "inputs": [
        {
          "internalType": "address",
          "name": "sender",
          "type": "address"
        },
        {
          "internalType": "uint256",
          "name": "tokenId",
          "type": "uint256"
        },
        {
          "internalType": "address",
          "name": "owner",
          "type": "address"
        }
      ],
      "name": "ERC721IncorrectOwner",
      "type": "error"
    },
    {
      "inputs": [
        {
          "internalType": "address",
          "name": "operator",
          "type": "address"
        },
        {
          "internalType": "uint256",
          "name": "tokenId",
          "type": "uint256"
        }
      ],
      "name": "ERC721InsufficientApproval",
      "type": "error"
    },
    {
      "inputs": [
        {
          "internalType": "address",
          "name": "approver",
          "type": "address"
        }
      ],
      "name": "ERC721InvalidApprover",
      "type": "error"
    },
    {
      "inputs": [
        {
          "internalType": "address",
          "name": "operator",
          "type": "address"
        }
      ],
      "name": "ERC721InvalidOperator",
      "type": "error"
    },
    {
      "inputs": [
        {
          "internalType": "address",
          "name": "owner",
          "type": "address"
        }
      ],
      "name": "ERC721InvalidOwner",
      "type": "error"
    },
    {
      "inputs": [
        {
          "internalType": "address",
          "name": "receiver",
          "type": "address"
        }
      ],
      "name": "ERC721InvalidReceiver",
      "type": "error"
    },
    {
      "inputs": [
        {
          "internalType": "address",
          "name": "sender",
          "type": "address"
        }
      ],
      "name": "ERC721InvalidSender",
      "type": "error"
    },
    {
      "inputs": [
        {
          "internalType": "uint256",
          "name": "tokenId",
          "type": "uint256"
        }
      ],
      "name": "ERC721NonexistentToken",
      "type": "error"
    },
    {
      "inputs": [
        {
          "internalType": "address",
          "name": "owner",
          "type": "address"
        },
        {
          "internalType": "uint256",
          "name": "index",
          "type": "uint256"
        }
      ],
      "name": "ERC721OutOfBoundsIndex",
      "type": "error"
    },
    {
      "inputs": [],
      "name": "InvalidInitialization",
      "type": "error"
    },
    {
      "inputs": [],
      "name": "NotInitializing",
      "type": "error"
    },
    {
      "inputs": [],
      "name": "NotWhitelisted",
      "type": "error"
    },
    {
      "inputs": [
        {
          "internalType": "address",
          "name": "owner",
          "type": "address"
        }
      ],
      "name": "OwnableInvalidOwner",
      "type": "error"
    },
    {
      "inputs": [
        {
          "internalType": "address",
          "name": "account",
          "type": "address"
        }
      ],
      "name": "OwnableUnauthorizedAccount",
      "type": "error"
    },
    {
      "inputs": [],
      "name": "TransferDisabled",
      "type": "error"
    },
    {
      "anonymous": false,
      "inputs": [
        {
          "indexed": true,
          "internalType": "address",
          "name": "owner",
          "type": "address"
        },
        {
          "indexed": true,
          "internalType": "address",
          "name": "approved",
          "type": "address"
        },
        {
          "indexed": true,
          "internalType": "uint256",
          "name": "tokenId",
          "type": "uint256"
        }
      ],
      "name": "Approval",
      "type": "event"
    },
    {
      "anonymous": false,
      "inputs": [
        {
          "indexed": true,
          "internalType": "address",
          "name": "owner",
          "type": "address"
        },
        {
          "indexed": true,
          "internalType": "address",
          "name": "operator",
          "type": "address"
        },
        {
          "indexed": false,
          "internalType": "bool",
          "name": "approved",
          "type": "bool"
        }
      ],
      "name": "ApprovalForAll",
      "type": "event"
    },
    {
      "anonymous": false,
      "inputs": [],
      "name": "DescriptorLocked",
      "type": "event"
    },
    {
      "anonymous": false,
      "inputs": [
        {
          "indexed": false,
          "internalType": "contract INouncillorsDescriptorMinimal",
          "name": "descriptor",
          "type": "address"
        }
      ],
      "name": "DescriptorUpdated",
      "type": "event"
    },
    {
      "anonymous": false,
      "inputs": [
        {
          "indexed": false,
          "internalType": "uint64",
          "name": "version",
          "type": "uint64"
        }
      ],
      "name": "Initialized",
      "type": "event"
    },
    {
      "anonymous": false,
      "inputs": [
        {
          "indexed": true,
          "internalType": "uint256",
          "name": "tokenId",
          "type": "uint256"
        },
        {
          "components": [
            {
              "internalType": "uint48",
              "name": "background",
              "type": "uint48"
            },
            {
              "internalType": "uint48",
              "name": "body",
              "type": "uint48"
            },
            {
              "internalType": "uint48",
              "name": "accessory",
              "type": "uint48"
            },
            {
              "internalType": "uint48",
              "name": "head",
              "type": "uint48"
            },
            {
              "internalType": "uint48",
              "name": "glasses",
              "type": "uint48"
            }
          ],
          "indexed": false,
          "internalType": "struct INouncillorsSeeder.Seed",
          "name": "seed",
          "type": "tuple"
        },
        {
          "indexed": true,
          "internalType": "address",
          "name": "minter",
          "type": "address"
        }
      ],
      "name": "NouncillorMinted",
      "type": "event"
    },
    {
      "anonymous": false,
      "inputs": [
        {
          "indexed": true,
          "internalType": "address",
          "name": "previousOwner",
          "type": "address"
        },
        {
          "indexed": true,
          "internalType": "address",
          "name": "newOwner",
          "type": "address"
        }
      ],
      "name": "OwnershipTransferred",
      "type": "event"
    },
    {
      "anonymous": false,
      "inputs": [],
      "name": "SeederLocked",
      "type": "event"
    },
    {
      "anonymous": false,
      "inputs": [
        {
          "indexed": false,
          "internalType": "contract INouncillorsSeeder",
          "name": "seeder",
          "type": "address"
        }
      ],
      "name": "SeederUpdated",
      "type": "event"
    },
    {
      "anonymous": false,
      "inputs": [
        {
          "indexed": true,
          "internalType": "address",
          "name": "from",
          "type": "address"
        },
        {
          "indexed": true,
          "internalType": "address",
          "name": "to",
          "type": "address"
        },
        {
          "indexed": true,
          "internalType": "uint256",
          "name": "tokenId",
          "type": "uint256"
        }
      ],
      "name": "Transfer",
      "type": "event"
    },
    {
      "anonymous": false,
      "inputs": [
        {
          "indexed": false,
          "internalType": "bool",
          "name": "transfersEnabled",
          "type": "bool"
        }
      ],
      "name": "TransferabilityToggled",
      "type": "event"
    },
    {
      "anonymous": false,
      "inputs": [
        {
          "indexed": true,
          "internalType": "bytes32",
          "name": "newMerkleRoot",
          "type": "bytes32"
        }
      ],
      "name": "WhitelistUpdated",
      "type": "event"
    },
    {
      "inputs": [
        {
          "internalType": "address",
          "name": "to",
          "type": "address"
        },
        {
          "internalType": "uint256",
          "name": "tokenId",
          "type": "uint256"
        }
      ],
      "name": "approve",
      "outputs": [],
      "stateMutability": "nonpayable",
      "type": "function"
    },
    {
      "inputs": [
        {
          "internalType": "address",
          "name": "owner",
          "type": "address"
        }
      ],
      "name": "balanceOf",
      "outputs": [
        {
          "internalType": "uint256",
          "name": "",
          "type": "uint256"
        }
      ],
      "stateMutability": "view",
      "type": "function"
    },
    {
      "inputs": [],
      "name": "contractURI",
      "outputs": [
        {
          "internalType": "string",
          "name": "",
          "type": "string"
        }
      ],
      "stateMutability": "view",
      "type": "function"
    },
    {
      "inputs": [
        {
          "internalType": "uint256",
          "name": "tokenId",
          "type": "uint256"
        }
      ],
      "name": "dataURI",
      "outputs": [
        {
          "internalType": "string",
          "name": "",
          "type": "string"
        }
      ],
      "stateMutability": "view",
      "type": "function"
    },
    {
      "inputs": [],
      "name": "descriptor",
      "outputs": [
        {
          "internalType": "contract INouncillorsDescriptorMinimal",
          "name": "",
          "type": "address"
        }
      ],
      "stateMutability": "view",
      "type": "function"
    },
    {
      "inputs": [
        {
          "internalType": "uint256",
          "name": "tokenId",
          "type": "uint256"
        }
      ],
      "name": "getApproved",
      "outputs": [
        {
          "internalType": "address",
          "name": "",
          "type": "address"
        }
      ],
      "stateMutability": "view",
      "type": "function"
    },
    {
      "inputs": [
        {
          "internalType": "string",
          "name": "name",
          "type": "string"
        },
        {
          "internalType": "string",
          "name": "symbol",
          "type": "string"
        },
        {
          "internalType": "contract INouncillorsDescriptorMinimal",
          "name": "_descriptor",
          "type": "address"
        },
        {
          "internalType": "contract INouncillorsSeeder",
          "name": "_seeder",
          "type": "address"
        }
      ],
      "name": "initialize",
      "outputs": [],
      "stateMutability": "nonpayable",
      "type": "function"
    },
    {
      "inputs": [
        {
          "internalType": "address",
          "name": "owner",
          "type": "address"
        },
        {
          "internalType": "address",
          "name": "operator",
          "type": "address"
        }
      ],
      "name": "isApprovedForAll",
      "outputs": [
        {
          "internalType": "bool",
          "name": "",
          "type": "bool"
        }
      ],
      "stateMutability": "view",
      "type": "function"
    },
    {
      "inputs": [],
      "name": "isDescriptorLocked",
      "outputs": [
        {
          "internalType": "bool",
          "name": "",
          "type": "bool"
        }
      ],
      "stateMutability": "view",
      "type": "function"
    },
    {
      "inputs": [],
      "name": "isSeederLocked",
      "outputs": [
        {
          "internalType": "bool",
          "name": "",
          "type": "bool"
        }
      ],
      "stateMutability": "view",
      "type": "function"
    },
    {
      "inputs": [
        {
          "internalType": "address",
          "name": "forwarder",
          "type": "address"
        }
      ],
      "name": "isTrustedForwarder",
      "outputs": [
        {
          "internalType": "bool",
          "name": "",
          "type": "bool"
        }
      ],
      "stateMutability": "view",
      "type": "function"
    },
    {
      "inputs": [
        {
          "internalType": "address",
          "name": "_address",
          "type": "address"
        },
        {
          "internalType": "bytes32[]",
          "name": "_merkleProof",
          "type": "bytes32[]"
        }
      ],
      "name": "isWhitelisted",
      "outputs": [
        {
          "internalType": "bool",
          "name": "",
          "type": "bool"
        }
      ],
      "stateMutability": "view",
      "type": "function"
    },
    {
      "inputs": [],
      "name": "lockDescriptor",
      "outputs": [],
      "stateMutability": "nonpayable",
      "type": "function"
    },
    {
      "inputs": [],
      "name": "lockSeeder",
      "outputs": [],
      "stateMutability": "nonpayable",
      "type": "function"
    },
    {
      "inputs": [
        {
          "internalType": "bytes32[]",
          "name": "_merkleProof",
          "type": "bytes32[]"
        }
      ],
      "name": "mint",
      "outputs": [
        {
          "internalType": "uint256",
          "name": "",
          "type": "uint256"
        }
      ],
      "stateMutability": "nonpayable",
      "type": "function"
    },
    {
      "inputs": [],
      "name": "name",
      "outputs": [
        {
          "internalType": "string",
          "name": "",
          "type": "string"
        }
      ],
      "stateMutability": "view",
      "type": "function"
    },
    {
      "inputs": [],
      "name": "owner",
      "outputs": [
        {
          "internalType": "address",
          "name": "",
          "type": "address"
        }
      ],
      "stateMutability": "view",
      "type": "function"
    },
    {
      "inputs": [
        {
          "internalType": "uint256",
          "name": "tokenId",
          "type": "uint256"
        }
      ],
      "name": "ownerOf",
      "outputs": [
        {
          "internalType": "address",
          "name": "",
          "type": "address"
        }
      ],
      "stateMutability": "view",
      "type": "function"
    },
    {
      "inputs": [],
      "name": "renounceOwnership",
      "outputs": [],
      "stateMutability": "nonpayable",
      "type": "function"
    },
    {
      "inputs": [
        {
          "internalType": "address",
          "name": "from",
          "type": "address"
        },
        {
          "internalType": "address",
          "name": "to",
          "type": "address"
        },
        {
          "internalType": "uint256",
          "name": "tokenId",
          "type": "uint256"
        }
      ],
      "name": "safeTransferFrom",
      "outputs": [],
      "stateMutability": "nonpayable",
      "type": "function"
    },
    {
      "inputs": [
        {
          "internalType": "address",
          "name": "from",
          "type": "address"
        },
        {
          "internalType": "address",
          "name": "to",
          "type": "address"
        },
        {
          "internalType": "uint256",
          "name": "tokenId",
          "type": "uint256"
        },
        {
          "internalType": "bytes",
          "name": "_data",
          "type": "bytes"
        }
      ],
      "name": "safeTransferFrom",
      "outputs": [],
      "stateMutability": "nonpayable",
      "type": "function"
    },
    {
      "inputs": [],
      "name": "seeder",
      "outputs": [
        {
          "internalType": "contract INouncillorsSeeder",
          "name": "",
          "type": "address"
        }
      ],
      "stateMutability": "view",
      "type": "function"
    },
    {
      "inputs": [
        {
          "internalType": "uint256",
          "name": "",
          "type": "uint256"
        }
      ],
      "name": "seeds",
      "outputs": [
        {
          "internalType": "uint48",
          "name": "background",
          "type": "uint48"
        },
        {
          "internalType": "uint48",
          "name": "body",
          "type": "uint48"
        },
        {
          "internalType": "uint48",
          "name": "accessory",
          "type": "uint48"
        },
        {
          "internalType": "uint48",
          "name": "head",
          "type": "uint48"
        },
        {
          "internalType": "uint48",
          "name": "glasses",
          "type": "uint48"
        }
      ],
      "stateMutability": "view",
      "type": "function"
    },
    {
      "inputs": [
        {
          "internalType": "address",
          "name": "operator",
          "type": "address"
        },
        {
          "internalType": "bool",
          "name": "_approved",
          "type": "bool"
        }
      ],
      "name": "setApprovalForAll",
      "outputs": [],
      "stateMutability": "nonpayable",
      "type": "function"
    },
    {
      "inputs": [
        {
          "internalType": "string",
          "name": "newContractURIHash",
          "type": "string"
        }
      ],
      "name": "setContractURIHash",
      "outputs": [],
      "stateMutability": "nonpayable",
      "type": "function"
    },
    {
      "inputs": [
        {
          "internalType": "contract INouncillorsDescriptorMinimal",
          "name": "_descriptor",
          "type": "address"
        }
      ],
      "name": "setDescriptor",
      "outputs": [],
      "stateMutability": "nonpayable",
      "type": "function"
    },
    {
      "inputs": [
        {
          "internalType": "bytes32",
          "name": "_newMerkleRoot",
          "type": "bytes32"
        }
      ],
      "name": "setMerkleRoot",
      "outputs": [],
      "stateMutability": "nonpayable",
      "type": "function"
    },
    {
      "inputs": [
        {
          "internalType": "contract INouncillorsSeeder",
          "name": "_seeder",
          "type": "address"
        }
      ],
      "name": "setSeeder",
      "outputs": [],
      "stateMutability": "nonpayable",
      "type": "function"
    },
    {
      "inputs": [
        {
          "internalType": "bytes4",
          "name": "interfaceId",
          "type": "bytes4"
        }
      ],
      "name": "supportsInterface",
      "outputs": [
        {
          "internalType": "bool",
          "name": "",
          "type": "bool"
        }
      ],
      "stateMutability": "view",
      "type": "function"
    },
    {
      "inputs": [],
      "name": "symbol",
      "outputs": [
        {
          "internalType": "string",
          "name": "",
          "type": "string"
        }
      ],
      "stateMutability": "view",
      "type": "function"
    },
    {
      "inputs": [],
      "name": "toggleTransferability",
      "outputs": [],
      "stateMutability": "nonpayable",
      "type": "function"
    },
    {
      "inputs": [
        {
          "internalType": "uint256",
          "name": "index",
          "type": "uint256"
        }
      ],
      "name": "tokenByIndex",
      "outputs": [
        {
          "internalType": "uint256",
          "name": "",
          "type": "uint256"
        }
      ],
      "stateMutability": "view",
      "type": "function"
    },
    {
      "inputs": [
        {
          "internalType": "address",
          "name": "owner",
          "type": "address"
        },
        {
          "internalType": "uint256",
          "name": "index",
          "type": "uint256"
        }
      ],
      "name": "tokenOfOwnerByIndex",
      "outputs": [
        {
          "internalType": "uint256",
          "name": "",
          "type": "uint256"
        }
      ],
      "stateMutability": "view",
      "type": "function"
    },
    {
      "inputs": [
        {
          "internalType": "uint256",
          "name": "tokenId",
          "type": "uint256"
        }
      ],
      "name": "tokenURI",
      "outputs": [
        {
          "internalType": "string",
          "name": "",
          "type": "string"
        }
      ],
      "stateMutability": "view",
      "type": "function"
    },
    {
      "inputs": [],
      "name": "totalSupply",
      "outputs": [
        {
          "internalType": "uint256",
          "name": "",
          "type": "uint256"
        }
      ],
      "stateMutability": "view",
      "type": "function"
    },
    {
      "inputs": [
        {
          "internalType": "address",
          "name": "from",
          "type": "address"
        },
        {
          "internalType": "address",
          "name": "to",
          "type": "address"
        },
        {
          "internalType": "uint256",
          "name": "tokenId",
          "type": "uint256"
        }
      ],
      "name": "transferFrom",
      "outputs": [],
      "stateMutability": "nonpayable",
      "type": "function"
    },
    {
      "inputs": [
        {
          "internalType": "address",
          "name": "newOwner",
          "type": "address"
        }
      ],
      "name": "transferOwnership",
      "outputs": [],
      "stateMutability": "nonpayable",
      "type": "function"
    },
    {
      "inputs": [],
      "name": "trustedForwarder",
      "outputs": [
        {
          "internalType": "address",
          "name": "",
          "type": "address"
        }
      ],
      "stateMutability": "view",
      "type": "function"
    }
  ],
  "bytecode": "0x60a06040526040518060400160405280601281526020017f456a736e59686657516461736441434153660000000000000000000000000000815250600790816200004a919062000335565b503480156200005857600080fd5b5060405162004e3738038062004e3783398181016040528101906200007e919062000486565b808073ffffffffffffffffffffffffffffffffffffffff1660808173ffffffffffffffffffffffffffffffffffffffff16815250505050620004b8565b600081519050919050565b7f4e487b7100000000000000000000000000000000000000000000000000000000600052604160045260246000fd5b7f4e487b7100000000000000000000000000000000000000000000000000000000600052602260045260246000fd5b600060028204905060018216806200013d57607f821691505b602082108103620001535762000152620000f5565b5b50919050565b60008190508160005260206000209050919050565b60006020601f8301049050919050565b600082821b905092915050565b600060088302620001bd7fffffffffffffffffffffffffffffffffffffffffffffffffffffffffffffffff826200017e565b620001c986836200017e565b95508019841693508086168417925050509392505050565b6000819050919050565b6000819050919050565b600062000216620002106200020a84620001e1565b620001eb565b620001e1565b9050919050565b6000819050919050565b6200023283620001f5565b6200024a62000241826200021d565b8484546200018b565b825550505050565b600090565b6200026162000252565b6200026e81848462000227565b505050565b5b8181101562000296576200028a60008262000257565b60018101905062000274565b5050565b601f821115620002e557620002af8162000159565b620002ba846200016e565b81016020851015620002ca578190505b620002e2620002d9856200016e565b83018262000273565b50505b505050565b600082821c905092915050565b60006200030a60001984600802620002ea565b1980831691505092915050565b6000620003258383620002f7565b9150826002028217905092915050565b6200034082620000bb565b67ffffffffffffffff8111156200035c576200035b620000c6565b5b62000368825462000124565b620003758282856200029a565b600060209050601f831160018114620003ad576000841562000398578287015190505b620003a4858262000317565b86555062000414565b601f198416620003bd8662000159565b60005b82811015620003e757848901518255600182019150602085019450602081019050620003c0565b8683101562000407578489015162000403601f891682620002f7565b8355505b6001600288020188555050505b505050505050565b600080fd5b600073ffffffffffffffffffffffffffffffffffffffff82169050919050565b60006200044e8262000421565b9050919050565b620004608162000441565b81146200046c57600080fd5b50565b600081519050620004808162000455565b92915050565b6000602082840312156200049f576200049e6200041c565b5b6000620004af848285016200046f565b91505092915050565b608051614963620004d46000396000610fb301526149636000f3fe608060405234801561001057600080fd5b50600436106102325760003560e01c806370a0823111610130578063b88d4fde116100b8578063d50b31eb1161007c578063d50b31eb14610679578063e8a3d48514610695578063e985e9c5146106b3578063f0503e80146106e3578063f2fde38b1461071757610232565b8063b88d4fde146105d5578063baedc1c4146105f1578063c1b8e4e11461060d578063c87b56dd1461062b578063c8fc0c231461065b57610232565b80638da5cb5b116100ff5780638da5cb5b146105315780638f15b4141461054f57806395d89b411461056b578063a22cb46514610589578063b77a147b146105a557610232565b806370a08231146104bd578063715018a6146104ed5780637cb64759146104f75780637da0a8771461051357610232565b80633d0a4dae116101be5780635a23dd99116101825780635a23dd99146104055780635ac1e3bb146104355780635f295a67146104655780636352211e1461046f578063684931ed1461049f57610232565b80633d0a4dae1461037557806341b5d0de1461037f57806342842e0e146103895780634f6ccce7146103a5578063572b6c05146103d557610232565b8063095ea7b311610205578063095ea7b3146102d157806318160ddd146102ed57806323b872dd1461030b5780632f745c5914610327578063303e74df1461035757610232565b806301b9a3971461023757806301ffc9a71461025357806306fdde0314610283578063081812fc146102a1575b600080fd5b610251600480360381019061024c919061335c565b610733565b005b61026d600480360381019061026891906133e1565b610805565b60405161027a9190613429565b60405180910390f35b61028b610817565b60405161029891906134d4565b60405180910390f35b6102bb60048036038101906102b6919061352c565b6108b8565b6040516102c89190613568565b60405180910390f35b6102eb60048036038101906102e691906135af565b6108d4565b005b6102f5610928565b60405161030291906135fe565b60405180910390f35b61032560048036038101906103209190613619565b610943565b005b610341600480360381019061033c91906135af565b610999565b60405161034e91906135fe565b60405180910390f35b61035f610a50565b60405161036c91906136cb565b60405180910390f35b61037d610a74565b005b610387610aee565b005b6103a3600480360381019061039e9190613619565b610b8e565b005b6103bf60048036038101906103ba919061352c565b610bae565b6040516103cc91906135fe565b60405180910390f35b6103ef60048036038101906103ea91906136e6565b610c32565b6040516103fc9190613429565b60405180910390f35b61041f600480360381019061041a9190613778565b610c71565b60405161042c9190613429565b60405180910390f35b61044f600480360381019061044a919061352c565b610cf5565b60405161045c91906134d4565b60405180910390f35b61046d610dbb565b005b6104896004803603810190610484919061352c565b610e5b565b6040516104969190613568565b60405180910390f35b6104a7610e6d565b6040516104b491906137f9565b60405180910390f35b6104d760048036038101906104d291906136e6565b610e93565b6040516104e491906135fe565b60405180910390f35b6104f5610f5c565b005b610511600480360381019061050c919061384a565b610f70565b005b61051b610faf565b6040516105289190613568565b60405180910390f35b610539610fd7565b6040516105469190613568565b60405180910390f35b610569600480360381019061056491906139e5565b61100f565b005b61057361124f565b60405161058091906134d4565b60405180910390f35b6105a3600480360381019061059e9190613ab0565b6112f0565b005b6105bf60048036038101906105ba9190613af0565b611344565b6040516105cc91906135fe565b60405180910390f35b6105ef60048036038101906105ea9190613bde565b611497565b005b61060b60048036038101906106069190613c61565b6114ef565b005b61061561150a565b6040516106229190613429565b60405180910390f35b6106456004803603810190610640919061352c565b61151d565b60405161065291906134d4565b60405180910390f35b6106636115e3565b6040516106709190613429565b60405180910390f35b610693600480360381019061068e9190613caa565b6115f6565b005b61069d6116c9565b6040516106aa91906134d4565b60405180910390f35b6106cd60048036038101906106c89190613cd7565b6116f1565b6040516106da9190613429565b60405180910390f35b6106fd60048036038101906106f8919061352c565b611793565b60405161070e959493929190613d38565b60405180910390f35b610731600480360381019061072c91906136e6565b611823565b005b61073b6118a9565b600160149054906101000a900460ff161561078b576040517f08c379a000000000000000000000000000000000000000000000000000000000815260040161078290613dd7565b60405180910390fd5b806000806101000a81548173ffffffffffffffffffffffffffffffffffffffff021916908373ffffffffffffffffffffffffffffffffffffffff1602179055507f6e66ab22238a5471005895947c8f57db923c2a9c9c73180eff80864c21295c1b816040516107fa91906136cb565b60405180910390a150565b600061081082611930565b9050919050565b606060006108236119aa565b905080600001805461083490613e26565b80601f016020809104026020016040519081016040528092919081815260200182805461086090613e26565b80156108ad5780601f10610882576101008083540402835291602001916108ad565b820191906000526020600020905b81548152906001019060200180831161089057829003601f168201915b505050505091505090565b60006108c3826119d2565b506108cd82611a5a565b9050919050565b600560009054906101000a900460ff1661091a576040517fa24e573d00000000000000000000000000000000000000000000000000000000815260040160405180910390fd5b6109248282611aa5565b5050565b600080610933611abb565b9050806002018054905091505090565b600560009054906101000a900460ff16610989576040517fa24e573d00000000000000000000000000000000000000000000000000000000815260040160405180910390fd5b610994838383611ae3565b505050565b6000806109a4611abb565b90506109af84610e93565b83106109f45783836040517fa57d13dc0000000000000000000000000000000000000000000000000000000081526004016109eb929190613e57565b60405180910390fd5b8060000160008573ffffffffffffffffffffffffffffffffffffffff1673ffffffffffffffffffffffffffffffffffffffff16815260200190815260200160002060008481526020019081526020016000205491505092915050565b60008054906101000a900473ffffffffffffffffffffffffffffffffffffffff1681565b610a7c6118a9565b600560009054906101000a900460ff1615600560006101000a81548160ff0219169083151502179055507fbd86d18bdee126ec15975f8c58575e94d314faa036b2f34d6b31dbfd86a03327600560009054906101000a900460ff16604051610ae49190613429565b60405180910390a1565b610af66118a9565b600160149054906101000a900460ff1615610b46576040517f08c379a0000000000000000000000000000000000000000000000000000000008152600401610b3d90613dd7565b60405180910390fd5b60018060146101000a81548160ff0219169083151502179055507f593e31e306c198bef259d839f7c6dc4ff7fc10c07f76fab193a210b03704105f60405160405180910390a1565b610ba983838360405180602001604052806000815250611497565b505050565b600080610bb9611abb565b9050610bc3610928565b8310610c09576000836040517fa57d13dc000000000000000000000000000000000000000000000000000000008152600401610c00929190613e57565b60405180910390fd5b806002018381548110610c1f57610c1e613e80565b5b9060005260206000200154915050919050565b6000610c3c610faf565b73ffffffffffffffffffffffffffffffffffffffff168273ffffffffffffffffffffffffffffffffffffffff16149050919050565b60008084604051602001610c859190613ef7565b604051602081830303815290604052805190602001209050610ceb848480806020026020016040519081016040528093929190818152602001838360200280828437600081840152601f19601f8201169050808301925050505050505060065483611be5565b9150509392505050565b6060610d00826119d2565b5060008054906101000a900473ffffffffffffffffffffffffffffffffffffffff1673ffffffffffffffffffffffffffffffffffffffff1663638ac27083600260008681526020019081526020016000206040518363ffffffff1660e01b8152600401610d6e92919061407b565b600060405180830381865afa158015610d8b573d6000803e3d6000fd5b505050506040513d6000823e3d601f19601f82011682018060405250810190610db49190614114565b9050919050565b610dc36118a9565b600160159054906101000a900460ff1615610e13576040517f08c379a0000000000000000000000000000000000000000000000000000000008152600401610e0a906141a9565b60405180910390fd5b60018060156101000a81548160ff0219169083151502179055507ff59561f22794afcfb1e6be5c4733f5449fd167252a96b74bb06d341fb0dac7ed60405160405180910390a1565b6000610e66826119d2565b9050919050565b600160009054906101000a900473ffffffffffffffffffffffffffffffffffffffff1681565b600080610e9e6119aa565b9050600073ffffffffffffffffffffffffffffffffffffffff168373ffffffffffffffffffffffffffffffffffffffff1603610f125760006040517f89c62b64000000000000000000000000000000000000000000000000000000008152600401610f099190613568565b60405180910390fd5b8060030160008473ffffffffffffffffffffffffffffffffffffffff1673ffffffffffffffffffffffffffffffffffffffff16815260200190815260200160002054915050919050565b610f646118a9565b610f6e6000611bfc565b565b610f786118a9565b80600681905550807f136c0469109f45a2bf2f764309926b484a507d7645843502b6a6a68b2e5dc0eb60405160405180910390a250565b60007f0000000000000000000000000000000000000000000000000000000000000000905090565b600080610fe2611cd3565b90508060000160009054906101000a900473ffffffffffffffffffffffffffffffffffffffff1691505090565b6000611019611cfb565b905060008160000160089054906101000a900460ff1615905060008260000160009054906101000a900467ffffffffffffffff1690506000808267ffffffffffffffff161480156110675750825b9050600060018367ffffffffffffffff1614801561109c575060003073ffffffffffffffffffffffffffffffffffffffff163b145b9050811580156110aa575080155b156110e1576040517ff92ee8a900000000000000000000000000000000000000000000000000000000815260040160405180910390fd5b60018560000160006101000a81548167ffffffffffffffff021916908367ffffffffffffffff16021790555083156111315760018560000160086101000a81548160ff0219169083151502179055505b61113b8989611d23565b611143611d39565b61114c33611d43565b6000600560006101000a81548160ff021916908315150217905550866000806101000a81548173ffffffffffffffffffffffffffffffffffffffff021916908373ffffffffffffffffffffffffffffffffffffffff16021790555085600160006101000a81548173ffffffffffffffffffffffffffffffffffffffff021916908373ffffffffffffffffffffffffffffffffffffffff16021790555083156112445760008560000160086101000a81548160ff0219169083151502179055507fc7f505b2f371ae2175ee4913f4499e1f2633a7b5936321eed1cdaeb6115181d2600160405161123b9190614218565b60405180910390a15b505050505050505050565b6060600061125b6119aa565b905080600101805461126c90613e26565b80601f016020809104026020016040519081016040528092919081815260200182805461129890613e26565b80156112e55780601f106112ba576101008083540402835291602001916112e5565b820191906000526020600020905b8154815290600101906020018083116112c857829003601f168201915b505050505091505090565b600560009054906101000a900460ff16611336576040517fa24e573d00000000000000000000000000000000000000000000000000000000815260040160405180910390fd5b6113408282611d57565b5050565b60008061134f611d6d565b9050600460008273ffffffffffffffffffffffffffffffffffffffff1673ffffffffffffffffffffffffffffffffffffffff16815260200190815260200160002060009054906101000a900460ff16156113d5576040517f646cf55800000000000000000000000000000000000000000000000000000000815260040160405180910390fd5b6113e0818585610c71565b611416576040517f584a793800000000000000000000000000000000000000000000000000000000815260040160405180910390fd5b6001600460008373ffffffffffffffffffffffffffffffffffffffff1673ffffffffffffffffffffffffffffffffffffffff16815260200190815260200160002060006101000a81548160ff02191690831515021790555061148e816003600081548092919061148590614262565b91905055611db0565b91505092915050565b600560009054906101000a900460ff166114dd576040517fa24e573d00000000000000000000000000000000000000000000000000000000815260040160405180910390fd5b6114e9848484846120a9565b50505050565b6114f76118a9565b8060079081611506919061444c565b5050565b600160149054906101000a900460ff1681565b6060611528826119d2565b5060008054906101000a900473ffffffffffffffffffffffffffffffffffffffff1673ffffffffffffffffffffffffffffffffffffffff16633cfdafd383600260008681526020019081526020016000206040518363ffffffff1660e01b815260040161159692919061407b565b600060405180830381865afa1580156115b3573d6000803e3d6000fd5b505050506040513d6000823e3d601f19601f820116820180604052508101906115dc9190614114565b9050919050565b600160159054906101000a900460ff1681565b6115fe6118a9565b600160159054906101000a900460ff161561164e576040517f08c379a0000000000000000000000000000000000000000000000000000000008152600401611645906141a9565b60405180910390fd5b80600160006101000a81548173ffffffffffffffffffffffffffffffffffffffff021916908373ffffffffffffffffffffffffffffffffffffffff1602179055507fb3025222d01ce9a26c7f9d52bc3bfd0352366bd90a793c273fbfe1c81e0e288e816040516116be91906137f9565b60405180910390a150565b606060076040516020016116dd91906145f8565b604051602081830303815290604052905090565b6000806116fc6119aa565b90508060050160008573ffffffffffffffffffffffffffffffffffffffff1673ffffffffffffffffffffffffffffffffffffffff16815260200190815260200160002060008473ffffffffffffffffffffffffffffffffffffffff1673ffffffffffffffffffffffffffffffffffffffff16815260200190815260200160002060009054906101000a900460ff1691505092915050565b60026020528060005260406000206000915090508060000160009054906101000a900465ffffffffffff16908060000160069054906101000a900465ffffffffffff169080600001600c9054906101000a900465ffffffffffff16908060000160129054906101000a900465ffffffffffff16908060000160189054906101000a900465ffffffffffff16905085565b61182b6118a9565b600073ffffffffffffffffffffffffffffffffffffffff168173ffffffffffffffffffffffffffffffffffffffff160361189d5760006040517f1e4fbdf70000000000000000000000000000000000000000000000000000000081526004016118949190613568565b60405180910390fd5b6118a681611bfc565b50565b6118b1611d6d565b73ffffffffffffffffffffffffffffffffffffffff166118cf610fd7565b73ffffffffffffffffffffffffffffffffffffffff161461192e576118f2611d6d565b6040517f118cdaa70000000000000000000000000000000000000000000000000000000081526004016119259190613568565b60405180910390fd5b565b60007f780e9d63000000000000000000000000000000000000000000000000000000007bffffffffffffffffffffffffffffffffffffffffffffffffffffffff1916827bffffffffffffffffffffffffffffffffffffffffffffffffffffffff191614806119a357506119a2826120c6565b5b9050919050565b60007f80bb2b638cc20bc4d0a60d66940f3ab4a00c1d7b313497ca82fb0b4ab0079300905090565b6000806119de836121a8565b9050600073ffffffffffffffffffffffffffffffffffffffff168173ffffffffffffffffffffffffffffffffffffffff1603611a5157826040517f7e273289000000000000000000000000000000000000000000000000000000008152600401611a4891906135fe565b60405180910390fd5b80915050919050565b600080611a656119aa565b905080600401600084815260200190815260200160002060009054906101000a900473ffffffffffffffffffffffffffffffffffffffff16915050919050565b611ab78282611ab2611d6d565b6121f3565b5050565b60007f645e039705490088daad89bae25049a34f4a9072d398537b1ab2425f24cbed00905090565b600073ffffffffffffffffffffffffffffffffffffffff168273ffffffffffffffffffffffffffffffffffffffff1603611b555760006040517f64a0ae92000000000000000000000000000000000000000000000000000000008152600401611b4c9190613568565b60405180910390fd5b6000611b698383611b64611d6d565b612205565b90508373ffffffffffffffffffffffffffffffffffffffff168173ffffffffffffffffffffffffffffffffffffffff1614611bdf578382826040517f64283d7b000000000000000000000000000000000000000000000000000000008152600401611bd69392919061461a565b60405180910390fd5b50505050565b600082611bf28584612322565b1490509392505050565b6000611c06611cd3565b905060008160000160009054906101000a900473ffffffffffffffffffffffffffffffffffffffff169050828260000160006101000a81548173ffffffffffffffffffffffffffffffffffffffff021916908373ffffffffffffffffffffffffffffffffffffffff1602179055508273ffffffffffffffffffffffffffffffffffffffff168173ffffffffffffffffffffffffffffffffffffffff167f8be0079c531659141344cd1fd0a4f28419497f9722a3daafe3b4186f6b6457e060405160405180910390a3505050565b60007f9016d09d72d40fdae2fd8ceac6b6234c7706214fd39c1cd1e609a0528c199300905090565b60007ff0c57e16840df040f15088dc2f81fe391c3923bec73e23a9662efc9c229c6a00905090565b611d2b612372565b611d3582826123b2565b5050565b611d41612372565b565b611d4b612372565b611d54816123ef565b50565b611d69611d62611d6d565b8383612475565b5050565b6000611d7833610c32565b8015611d8957506014600036905010155b15611d9d57601436033560601c9050611dac565b611da56125f3565b9050611dad565b5b90565b600080600160009054906101000a900473ffffffffffffffffffffffffffffffffffffffff1673ffffffffffffffffffffffffffffffffffffffff1663422e2e998460008054906101000a900473ffffffffffffffffffffffffffffffffffffffff166040518363ffffffff1660e01b8152600401611e30929190614651565b60a060405180830381865afa158015611e4d573d6000803e3d6000fd5b505050506040513d601f19601f82011682018060405250810190611e719190614737565b6002600085815260200190815260200160002060008201518160000160006101000a81548165ffffffffffff021916908365ffffffffffff16021790555060208201518160000160066101000a81548165ffffffffffff021916908365ffffffffffff160217905550604082015181600001600c6101000a81548165ffffffffffff021916908365ffffffffffff16021790555060608201518160000160126101000a81548165ffffffffffff021916908365ffffffffffff16021790555060808201518160000160186101000a81548165ffffffffffff021916908365ffffffffffff16021790555090506040518060a00160405290816000820160009054906101000a900465ffffffffffff1665ffffffffffff1665ffffffffffff1681526020016000820160069054906101000a900465ffffffffffff1665ffffffffffff1665ffffffffffff16815260200160008201600c9054906101000a900465ffffffffffff1665ffffffffffff1665ffffffffffff1681526020016000820160129054906101000a900465ffffffffffff1665ffffffffffff1665ffffffffffff1681526020016000820160189054906101000a900465ffffffffffff1665ffffffffffff1665ffffffffffff168152505090506120508484612636565b8373ffffffffffffffffffffffffffffffffffffffff16837fc142c36967aad9363ac8bbe6503fe5c9024abec8242bb4a4a4006f555854dc218360405161209791906147cc565b60405180910390a38291505092915050565b6120b4848484610943565b6120c084848484612654565b50505050565b60007f80ac58cd000000000000000000000000000000000000000000000000000000007bffffffffffffffffffffffffffffffffffffffffffffffffffffffff1916827bffffffffffffffffffffffffffffffffffffffffffffffffffffffff1916148061219157507f5b5e139f000000000000000000000000000000000000000000000000000000007bffffffffffffffffffffffffffffffffffffffffffffffffffffffff1916827bffffffffffffffffffffffffffffffffffffffffffffffffffffffff1916145b806121a157506121a08261280b565b5b9050919050565b6000806121b36119aa565b905080600201600084815260200190815260200160002060009054906101000a900473ffffffffffffffffffffffffffffffffffffffff16915050919050565b6122008383836001612875565b505050565b600080612213858585612a49565b9050600073ffffffffffffffffffffffffffffffffffffffff168173ffffffffffffffffffffffffffffffffffffffff16036122575761225284612c76565b612296565b8473ffffffffffffffffffffffffffffffffffffffff168173ffffffffffffffffffffffffffffffffffffffff1614612295576122948185612cd2565b5b5b600073ffffffffffffffffffffffffffffffffffffffff168573ffffffffffffffffffffffffffffffffffffffff16036122d8576122d384612e4c565b612317565b8473ffffffffffffffffffffffffffffffffffffffff168173ffffffffffffffffffffffffffffffffffffffff1614612316576123158585612f38565b5b5b809150509392505050565b60008082905060005b8451811015612367576123588286838151811061234b5761234a613e80565b5b6020026020010151612fd4565b9150808060010191505061232b565b508091505092915050565b61237a612fff565b6123b0576040517fd7e6bcf800000000000000000000000000000000000000000000000000000000815260040160405180910390fd5b565b6123ba612372565b60006123c46119aa565b9050828160000190816123d7919061444c565b50818160010190816123e9919061444c565b50505050565b6123f7612372565b600073ffffffffffffffffffffffffffffffffffffffff168173ffffffffffffffffffffffffffffffffffffffff16036124695760006040517f1e4fbdf70000000000000000000000000000000000000000000000000000000081526004016124609190613568565b60405180910390fd5b61247281611bfc565b50565b600061247f6119aa565b9050600073ffffffffffffffffffffffffffffffffffffffff168373ffffffffffffffffffffffffffffffffffffffff16036124f257826040517f5b08ba180000000000000000000000000000000000000000000000000000000081526004016124e99190613568565b60405180910390fd5b818160050160008673ffffffffffffffffffffffffffffffffffffffff1673ffffffffffffffffffffffffffffffffffffffff16815260200190815260200160002060008573ffffffffffffffffffffffffffffffffffffffff1673ffffffffffffffffffffffffffffffffffffffff16815260200190815260200160002060006101000a81548160ff0219169083151502179055508273ffffffffffffffffffffffffffffffffffffffff168473ffffffffffffffffffffffffffffffffffffffff167f17307eab39ab6107e8899845ad3d59bd9653f200f220920489ca2b5937696c31846040516125e59190613429565b60405180910390a350505050565b60006125fe33610c32565b801561260f57506014600036905010155b1561262357601436033560601c9050612632565b61262b61301f565b9050612633565b5b90565b612650828260405180602001604052806000815250613027565b5050565b60008373ffffffffffffffffffffffffffffffffffffffff163b1115612805578273ffffffffffffffffffffffffffffffffffffffff1663150b7a02612698611d6d565b8685856040518563ffffffff1660e01b81526004016126ba949392919061483c565b6020604051808303816000875af19250505080156126f657506040513d601f19601f820116820180604052508101906126f3919061489d565b60015b61277a573d8060008114612726576040519150601f19603f3d011682016040523d82523d6000602084013e61272b565b606091505b50600081510361277257836040517f64a0ae920000000000000000000000000000000000000000000000000000000081526004016127699190613568565b60405180910390fd5b805181602001fd5b63150b7a0260e01b7bffffffffffffffffffffffffffffffffffffffffffffffffffffffff1916817bffffffffffffffffffffffffffffffffffffffffffffffffffffffff19161461280357836040517f64a0ae920000000000000000000000000000000000000000000000000000000081526004016127fa9190613568565b60405180910390fd5b505b50505050565b60007f01ffc9a7000000000000000000000000000000000000000000000000000000007bffffffffffffffffffffffffffffffffffffffffffffffffffffffff1916827bffffffffffffffffffffffffffffffffffffffffffffffffffffffff1916149050919050565b600061287f6119aa565b905081806128ba5750600073ffffffffffffffffffffffffffffffffffffffff168373ffffffffffffffffffffffffffffffffffffffff1614155b156129ee5760006128ca856119d2565b9050600073ffffffffffffffffffffffffffffffffffffffff168473ffffffffffffffffffffffffffffffffffffffff161415801561293557508373ffffffffffffffffffffffffffffffffffffffff168173ffffffffffffffffffffffffffffffffffffffff1614155b8015612948575061294681856116f1565b155b1561298a57836040517fa9fbf51f0000000000000000000000000000000000000000000000000000000081526004016129819190613568565b60405180910390fd5b82156129ec57848673ffffffffffffffffffffffffffffffffffffffff168273ffffffffffffffffffffffffffffffffffffffff167f8c5be1e5ebec7d5bd14f71427d1e84f3dd0314c0f7b2291e5b200ac8c7c3b92560405160405180910390a45b505b8481600401600086815260200190815260200160002060006101000a81548173ffffffffffffffffffffffffffffffffffffffff021916908373ffffffffffffffffffffffffffffffffffffffff1602179055505050505050565b600080612a546119aa565b90506000612a61856121a8565b9050600073ffffffffffffffffffffffffffffffffffffffff168473ffffffffffffffffffffffffffffffffffffffff1614612aa357612aa2818587613043565b5b600073ffffffffffffffffffffffffffffffffffffffff168173ffffffffffffffffffffffffffffffffffffffff1614612b3657612ae5600086600080612875565b60018260030160008373ffffffffffffffffffffffffffffffffffffffff1673ffffffffffffffffffffffffffffffffffffffff168152602001908152602001600020600082825403925050819055505b600073ffffffffffffffffffffffffffffffffffffffff168673ffffffffffffffffffffffffffffffffffffffff1614612bbb5760018260030160008873ffffffffffffffffffffffffffffffffffffffff1673ffffffffffffffffffffffffffffffffffffffff168152602001908152602001600020600082825401925050819055505b8582600201600087815260200190815260200160002060006101000a81548173ffffffffffffffffffffffffffffffffffffffff021916908373ffffffffffffffffffffffffffffffffffffffff160217905550848673ffffffffffffffffffffffffffffffffffffffff168273ffffffffffffffffffffffffffffffffffffffff167fddf252ad1be2c89b69c2b068fc378daa952ba7f163c4a11628f55a4df523b3ef60405160405180910390a480925050509392505050565b6000612c80611abb565b9050806002018054905081600301600084815260200190815260200160002081905550806002018290806001815401808255809150506001900390600052602060002001600090919091909150555050565b6000612cdc611abb565b90506000612ce984610e93565b90506000826001016000858152602001908152602001600020549050818114612dd65760008360000160008773ffffffffffffffffffffffffffffffffffffffff1673ffffffffffffffffffffffffffffffffffffffff1681526020019081526020016000206000848152602001908152602001600020549050808460000160008873ffffffffffffffffffffffffffffffffffffffff1673ffffffffffffffffffffffffffffffffffffffff1681526020019081526020016000206000848152602001908152602001600020819055508184600101600083815260200190815260200160002081905550505b826001016000858152602001908152602001600020600090558260000160008673ffffffffffffffffffffffffffffffffffffffff1673ffffffffffffffffffffffffffffffffffffffff1681526020019081526020016000206000838152602001908152602001600020600090555050505050565b6000612e56611abb565b9050600060018260020180549050612e6e91906148ca565b905060008260030160008581526020019081526020016000205490506000836002018381548110612ea257612ea1613e80565b5b9060005260206000200154905080846002018381548110612ec657612ec5613e80565b5b906000526020600020018190555081846003016000838152602001908152602001600020819055508360030160008681526020019081526020016000206000905583600201805480612f1b57612f1a6148fe565b5b600190038181906000526020600020016000905590555050505050565b6000612f42611abb565b905060006001612f5185610e93565b612f5b91906148ca565b9050828260000160008673ffffffffffffffffffffffffffffffffffffffff1673ffffffffffffffffffffffffffffffffffffffff168152602001908152602001600020600083815260200190815260200160002081905550808260010160008581526020019081526020016000208190555050505050565b6000818310612fec57612fe78284613107565b612ff7565b612ff68383613107565b5b905092915050565b6000613009611cfb565b60000160089054906101000a900460ff16905090565b600033905090565b613031838361311e565b61303e6000848484612654565b505050565b61304e838383613217565b61310257600073ffffffffffffffffffffffffffffffffffffffff168373ffffffffffffffffffffffffffffffffffffffff16036130c357806040517f7e2732890000000000000000000000000000000000000000000000000000000081526004016130ba91906135fe565b60405180910390fd5b81816040517f177e802f0000000000000000000000000000000000000000000000000000000081526004016130f9929190613e57565b60405180910390fd5b505050565b600082600052816020526040600020905092915050565b600073ffffffffffffffffffffffffffffffffffffffff168273ffffffffffffffffffffffffffffffffffffffff16036131905760006040517f64a0ae920000000000000000000000000000000000000000000000000000000081526004016131879190613568565b60405180910390fd5b600061319e83836000612205565b9050600073ffffffffffffffffffffffffffffffffffffffff168173ffffffffffffffffffffffffffffffffffffffff16146132125760006040517f73c6ac6e0000000000000000000000000000000000000000000000000000000081526004016132099190613568565b60405180910390fd5b505050565b60008073ffffffffffffffffffffffffffffffffffffffff168373ffffffffffffffffffffffffffffffffffffffff16141580156132cf57508273ffffffffffffffffffffffffffffffffffffffff168473ffffffffffffffffffffffffffffffffffffffff161480613290575061328f84846116f1565b5b806132ce57508273ffffffffffffffffffffffffffffffffffffffff166132b683611a5a565b73ffffffffffffffffffffffffffffffffffffffff16145b5b90509392505050565b6000604051905090565b600080fd5b600080fd5b600073ffffffffffffffffffffffffffffffffffffffff82169050919050565b6000613317826132ec565b9050919050565b60006133298261330c565b9050919050565b6133398161331e565b811461334457600080fd5b50565b60008135905061335681613330565b92915050565b600060208284031215613372576133716132e2565b5b600061338084828501613347565b91505092915050565b60007fffffffff0000000000000000000000000000000000000000000000000000000082169050919050565b6133be81613389565b81146133c957600080fd5b50565b6000813590506133db816133b5565b92915050565b6000602082840312156133f7576133f66132e2565b5b6000613405848285016133cc565b91505092915050565b60008115159050919050565b6134238161340e565b82525050565b600060208201905061343e600083018461341a565b92915050565b600081519050919050565b600082825260208201905092915050565b60005b8381101561347e578082015181840152602081019050613463565b60008484015250505050565b6000601f19601f8301169050919050565b60006134a682613444565b6134b0818561344f565b93506134c0818560208601613460565b6134c98161348a565b840191505092915050565b600060208201905081810360008301526134ee818461349b565b905092915050565b6000819050919050565b613509816134f6565b811461351457600080fd5b50565b60008135905061352681613500565b92915050565b600060208284031215613542576135416132e2565b5b600061355084828501613517565b91505092915050565b6135628161330c565b82525050565b600060208201905061357d6000830184613559565b92915050565b61358c8161330c565b811461359757600080fd5b50565b6000813590506135a981613583565b92915050565b600080604083850312156135c6576135c56132e2565b5b60006135d48582860161359a565b92505060206135e585828601613517565b9150509250929050565b6135f8816134f6565b82525050565b600060208201905061361360008301846135ef565b92915050565b600080600060608486031215613632576136316132e2565b5b60006136408682870161359a565b93505060206136518682870161359a565b925050604061366286828701613517565b9150509250925092565b6000819050919050565b600061369161368c613687846132ec565b61366c565b6132ec565b9050919050565b60006136a382613676565b9050919050565b60006136b582613698565b9050919050565b6136c5816136aa565b82525050565b60006020820190506136e060008301846136bc565b92915050565b6000602082840312156136fc576136fb6132e2565b5b600061370a8482850161359a565b91505092915050565b600080fd5b600080fd5b600080fd5b60008083601f84011261373857613737613713565b5b8235905067ffffffffffffffff81111561375557613754613718565b5b6020830191508360208202830111156137715761377061371d565b5b9250929050565b600080600060408486031215613791576137906132e2565b5b600061379f8682870161359a565b935050602084013567ffffffffffffffff8111156137c0576137bf6132e7565b5b6137cc86828701613722565b92509250509250925092565b60006137e382613698565b9050919050565b6137f3816137d8565b82525050565b600060208201905061380e60008301846137ea565b92915050565b6000819050919050565b61382781613814565b811461383257600080fd5b50565b6000813590506138448161381e565b92915050565b6000602082840312156138605761385f6132e2565b5b600061386e84828501613835565b91505092915050565b600080fd5b7f4e487b7100000000000000000000000000000000000000000000000000000000600052604160045260246000fd5b6138b48261348a565b810181811067ffffffffffffffff821117156138d3576138d261387c565b5b80604052505050565b60006138e66132d8565b90506138f282826138ab565b919050565b600067ffffffffffffffff8211156139125761391161387c565b5b61391b8261348a565b9050602081019050919050565b82818337600083830152505050565b600061394a613945846138f7565b6138dc565b90508281526020810184848401111561396657613965613877565b5b613971848285613928565b509392505050565b600082601f83011261398e5761398d613713565b5b813561399e848260208601613937565b91505092915050565b60006139b28261330c565b9050919050565b6139c2816139a7565b81146139cd57600080fd5b50565b6000813590506139df816139b9565b92915050565b600080600080608085870312156139ff576139fe6132e2565b5b600085013567ffffffffffffffff811115613a1d57613a1c6132e7565b5b613a2987828801613979565b945050602085013567ffffffffffffffff811115613a4a57613a496132e7565b5b613a5687828801613979565b9350506040613a6787828801613347565b9250506060613a78878288016139d0565b91505092959194509250565b613a8d8161340e565b8114613a9857600080fd5b50565b600081359050613aaa81613a84565b92915050565b60008060408385031215613ac757613ac66132e2565b5b6000613ad58582860161359a565b9250506020613ae685828601613a9b565b9150509250929050565b60008060208385031215613b0757613b066132e2565b5b600083013567ffffffffffffffff811115613b2557613b246132e7565b5b613b3185828601613722565b92509250509250929050565b600067ffffffffffffffff821115613b5857613b5761387c565b5b613b618261348a565b9050602081019050919050565b6000613b81613b7c84613b3d565b6138dc565b905082815260208101848484011115613b9d57613b9c613877565b5b613ba8848285613928565b509392505050565b600082601f830112613bc557613bc4613713565b5b8135613bd5848260208601613b6e565b91505092915050565b60008060008060808587031215613bf857613bf76132e2565b5b6000613c068782880161359a565b9450506020613c178782880161359a565b9350506040613c2887828801613517565b925050606085013567ffffffffffffffff811115613c4957613c486132e7565b5b613c5587828801613bb0565b91505092959194509250565b600060208284031215613c7757613c766132e2565b5b600082013567ffffffffffffffff811115613c9557613c946132e7565b5b613ca184828501613979565b91505092915050565b600060208284031215613cc057613cbf6132e2565b5b6000613cce848285016139d0565b91505092915050565b60008060408385031215613cee57613ced6132e2565b5b6000613cfc8582860161359a565b9250506020613d0d8582860161359a565b9150509250929050565b600065ffffffffffff82169050919050565b613d3281613d17565b82525050565b600060a082019050613d4d6000830188613d29565b613d5a6020830187613d29565b613d676040830186613d29565b613d746060830185613d29565b613d816080830184613d29565b9695505050505050565b7f44657363726970746f72206973206c6f636b6564000000000000000000000000600082015250565b6000613dc160148361344f565b9150613dcc82613d8b565b602082019050919050565b60006020820190508181036000830152613df081613db4565b9050919050565b7f4e487b7100000000000000000000000000000000000000000000000000000000600052602260045260246000fd5b60006002820490506001821680613e3e57607f821691505b602082108103613e5157613e50613df7565b5b50919050565b6000604082019050613e6c6000830185613559565b613e7960208301846135ef565b9392505050565b7f4e487b7100000000000000000000000000000000000000000000000000000000600052603260045260246000fd5b60008160601b9050919050565b6000613ec782613eaf565b9050919050565b6000613ed982613ebc565b9050919050565b613ef1613eec8261330c565b613ece565b82525050565b6000613f038284613ee0565b60148201915081905092915050565b60008160001c9050919050565b600065ffffffffffff82169050919050565b6000613f44613f3f83613f12565b613f1f565b9050919050565b613f5481613d17565b82525050565b60008160301c9050919050565b6000613f7a613f7583613f5a565b613f1f565b9050919050565b60008160601c9050919050565b6000613fa1613f9c83613f81565b613f1f565b9050919050565b60008160901c9050919050565b6000613fc8613fc383613fa8565b613f1f565b9050919050565b60008160c01c9050919050565b6000613fef613fea83613fcf565b613f1f565b9050919050565b60a08201600080830154905061400b81613f31565b6140186000860182613f4b565b5061402281613f67565b61402f6020860182613f4b565b5061403981613f8e565b6140466040860182613f4b565b5061405081613fb5565b61405d6060860182613f4b565b5061406781613fdc565b6140746080860182613f4b565b5050505050565b600060c08201905061409060008301856135ef565b61409d6020830184613ff6565b9392505050565b60006140b76140b2846138f7565b6138dc565b9050828152602081018484840111156140d3576140d2613877565b5b6140de848285613460565b509392505050565b600082601f8301126140fb576140fa613713565b5b815161410b8482602086016140a4565b91505092915050565b60006020828403121561412a576141296132e2565b5b600082015167ffffffffffffffff811115614148576141476132e7565b5b614154848285016140e6565b91505092915050565b7f536565646572206973206c6f636b656400000000000000000000000000000000600082015250565b600061419360108361344f565b915061419e8261415d565b602082019050919050565b600060208201905081810360008301526141c281614186565b9050919050565b6000819050919050565b600067ffffffffffffffff82169050919050565b60006142026141fd6141f8846141c9565b61366c565b6141d3565b9050919050565b614212816141e7565b82525050565b600060208201905061422d6000830184614209565b92915050565b7f4e487b7100000000000000000000000000000000000000000000000000000000600052601160045260246000fd5b600061426d826134f6565b91507fffffffffffffffffffffffffffffffffffffffffffffffffffffffffffffffff820361429f5761429e614233565b5b600182019050919050565b60008190508160005260206000209050919050565b60006020601f8301049050919050565b600082821b905092915050565b60006008830261430c7fffffffffffffffffffffffffffffffffffffffffffffffffffffffffffffffff826142cf565b61431686836142cf565b95508019841693508086168417925050509392505050565b600061434961434461433f846134f6565b61366c565b6134f6565b9050919050565b6000819050919050565b6143638361432e565b61437761436f82614350565b8484546142dc565b825550505050565b600090565b61438c61437f565b61439781848461435a565b505050565b5b818110156143bb576143b0600082614384565b60018101905061439d565b5050565b601f821115614400576143d1816142aa565b6143da846142bf565b810160208510156143e9578190505b6143fd6143f5856142bf565b83018261439c565b50505b505050565b600082821c905092915050565b600061442360001984600802614405565b1980831691505092915050565b600061443c8383614412565b9150826002028217905092915050565b61445582613444565b67ffffffffffffffff81111561446e5761446d61387c565b5b6144788254613e26565b6144838282856143bf565b600060209050601f8311600181146144b657600084156144a4578287015190505b6144ae8582614430565b865550614516565b601f1984166144c4866142aa565b60005b828110156144ec578489015182556001820191506020850194506020810190506144c7565b868310156145095784890151614505601f891682614412565b8355505b6001600288020188555050505b505050505050565b600081905092915050565b7f697066733a2f2f00000000000000000000000000000000000000000000000000600082015250565b600061455f60078361451e565b915061456a82614529565b600782019050919050565b6000815461458281613e26565b61458c818661451e565b945060018216600081146145a757600181146145bc576145ef565b60ff19831686528115158202860193506145ef565b6145c5856142aa565b60005b838110156145e7578154818901526001820191506020810190506145c8565b838801955050505b50505092915050565b600061460382614552565b915061460f8284614575565b915081905092915050565b600060608201905061462f6000830186613559565b61463c60208301856135ef565b6146496040830184613559565b949350505050565b600060408201905061466660008301856135ef565b61467360208301846136bc565b9392505050565b600080fd5b61468881613d17565b811461469357600080fd5b50565b6000815190506146a58161467f565b92915050565b600060a082840312156146c1576146c061467a565b5b6146cb60a06138dc565b905060006146db84828501614696565b60008301525060206146ef84828501614696565b602083015250604061470384828501614696565b604083015250606061471784828501614696565b606083015250608061472b84828501614696565b60808301525092915050565b600060a0828403121561474d5761474c6132e2565b5b600061475b848285016146ab565b91505092915050565b60a08201600082015161477a6000850182613f4b565b50602082015161478d6020850182613f4b565b5060408201516147a06040850182613f4b565b5060608201516147b36060850182613f4b565b5060808201516147c66080850182613f4b565b50505050565b600060a0820190506147e16000830184614764565b92915050565b600081519050919050565b600082825260208201905092915050565b600061480e826147e7565b61481881856147f2565b9350614828818560208601613460565b6148318161348a565b840191505092915050565b60006080820190506148516000830187613559565b61485e6020830186613559565b61486b60408301856135ef565b818103606083015261487d8184614803565b905095945050505050565b600081519050614897816133b5565b92915050565b6000602082840312156148b3576148b26132e2565b5b60006148c184828501614888565b91505092915050565b60006148d5826134f6565b91506148e0836134f6565b92508282039050818111156148f8576148f7614233565b5b92915050565b7f4e487b7100000000000000000000000000000000000000000000000000000000600052603160045260246000fdfea264697066735822122012a177d2fa61e3da03b1ff33007f02ae2d3ae6305d1400f9e487be1a4f36bf4764736f6c63430008160033",
  "linkReferences": {},
  "deployedLinkReferences": {}
}